:020000040800F2
:100000004823002091020008990200089B02000882
:100010009D0200089F020008A102000800000000E5
:10002000000000000000000000000000A302000823
:10003000A502000800000000A70200085D140008E7
:10004000AB020008AB020008AB020008AB020008DC
:10005000AB020008AB020008150A00081D0A0008E0
:10006000210A0008250A0008290A0008AB02000836
:10007000AB020008AB020008AB020008AB020008AC
:10008000AB020008AB020008AB020008AB0200089C
:10009000AB020008AB020008AB0200082D0A000802
:1000A000AB020008AB020008AB0200080115000813
:1000B000111500082115000831150008AB020008D1
:1000C000AB020008AB020008AB020008AB0200085C
:1000D000AB0200080D180008AB0200081D1800084C
:1000E000190A0008AB020008AB020008AB020008C6
:1000F000AB020008AB020008AB020008AB0200082C
:10010000AB020008AB020008AB020008AB0200081B
:10011000AB020008AB020008AB020008AB0200080B
:10012000AB020008AB020008AB020008AB020008FB
:10013000AB020008AB020008AB020008AB020008EB
:10014000AB020008AB020008AB020008AB020008DB
:10015000AB020008AB020008AB0200082D18000833
:10016000AB020008AB020008AB020008AB020008BB
:10017000AB020008AB020008AB0200080000000060
:10018000AB020008AB02000800F002F800F070F8C3
:100190000AA090E8000C82448344AAF10107DA45E2
:1001A00001D100F065F8AFF2090EBAE80F0013F0C4
:1001B000010F18BFFB1A43F001031847703B000002
:1001C000903B00000A444FF0000C10F8013B13F084
:1001D000070408BF10F8014B1D1108BF10F8015BA0
:1001E000641E05D010F8016B641E01F8016BF9D193
:1001F00013F0080F1EBF10F8014BAD1C0C1B09D1EA
:100200006D1E58BF01F801CBFAD505E014F8016B5B
:1002100001F8016B6D1EF9D59142D6D370470000ED
:100220000023002400250026103A28BF78C1FBD8FF
:10023000520728BF30C148BF0B607047642900F0E7
:10024000B180752900F0AE80732900F03382002060
:1002500070471FB503F076FC00F04AFA0400002056
:10026000002103F059FC401C60601FBD10B510BD9B
:1002700000F062FA1146FFF7ECFF02F05FF800F0C1
:1002800080FA03B4FFF7F2FF03BC00F0C5FA0000E8
:100290000948804709480047FEE7FEE7FEE7FEE71A
:1002A000FEE7FEE7FEE7FEE7FEE7FEE70448054956
:1002B000054A064B70470000A51400088901000894
:1002C000481D002048230020481F0020481F002010
:1002D0000FB4044910B503AA029800F0EFF910BC5E
:1002E0005DF814FB280000202DE9F0410E4604467D
:1002F000002020622046E168884730B3252805D0D9
:10030000D4E901219047206A401CF2E7E1682046C9
:1003100000278847050018D0A5F14100192802D808
:1003200020354FF400673246294620462760FFF704
:1003300085FF40B1012804D0F61D26F007060836D7
:10034000D8E7361DD6E72846DAE7206ABDE8F0810F
:1003500070B50C460546012A05D02878800600D5E0
:10036000EA69002302E0012305E05B1C934202D20C
:10037000E05C0028F9D1A869E618C01AA861286ACB
:10038000184428622846AFF3008004E0D5E9012133
:1003900014F8010B9047B442F8D32846AFF300801D
:1003A00070BD00002DE9F041064600241068752953
:1003B000314616A510D0AFF30080002802DA404283
:1003C00013A507E031688A0701D512A502E04907A5
:1003D00004D511A5012401E0AFF3008000210A2219
:1003E00006F1240709E0B0FBF2FCB0FBF2F302FBDC
:1003F0001C00303078541846491C0028F3D123469D
:100400002A463046BDE8F04100F0E9B8000000009F
:100410002D0000002B00000020000000401ECAB28A
:1004200010F8011F8A4202D00029F9D1002070473C
:100430002DE9F041054690460E460020044600E0B6
:10044000641C44450BD2285D00F0BCF80746305DC3
:1004500000F0B8F8381A02D1295D0029F0D1BDE8C2
:10046000F08110B5203AC0F00B80B1E81850203A66
:10047000A0E81850B1E81850A0E81850BFF4F5AF44
:100480005FEA027C24BFB1E81850A0E8185044BFCE
:1004900018C918C0BDE810405FEA827C24BF51F83B
:1004A000043B40F8043B08BF7047D20728BF31F82F
:1004B000023B48BF11F8012B28BF20F8023B48BF80
:1004C00000F8012B704702F0FF0343EA032242EADF
:1004D000024200F002B84FF000020429C0F012807E
:1004E00010F0030C00F01B80CCF1040CBCF1020FE7
:1004F00018BF00F8012BA8BF20F8022BA1EB0C01BC
:1005000000F00DB85FEAC17C24BF00F8012B00F8B1
:10051000012B48BF00F8012B70474FF0000200B5D7
:10052000134694469646203922BFA0E80C50A0E816
:100530000C50B1F12001BFF4F7AF090728BFA0E8C4
:100540000C5048BF0CC05DF804EB890028BF40F890
:10055000042B08BF704748BF20F8022B11F0804FD2
:1005600018BF00F8012B704710B5044610F0030FB8
:1005700008BF11F0030F40F015804FF0013E121F2D
:10058000C0F20E8051F8043BA3EB0E0C2CEA030CD6
:100590001CEACE1C08BF40F8043BF0D0A1F10401D6
:1005A00002F10402521E08DB11F8013B002B00F897
:1005B000013BF7D11146FFF78EFF204610BD704773
:1005C0007047704710B5044600F08AF80068005D77
:1005D000C00602D504F1200010BD204610BD2DE953
:1005E000F0470D4699469246044600F124080168FA
:1005F000880604D5E06921F01001216000E00120A7
:10060000A84201DD471B00E00027A1697A1902EB2F
:100610000900081AA0612078C00602D42046AFF372
:100620000080002608E0D4E901211AF8060090476E
:10063000206A401C761C20624E45F4DB2078C00600
:100640000AD52046AFF3008006E0D4E9012130202E
:100650009047206A401C2062381EA7F10107F4DC95
:1006600007E0D4E9012118F805009047206A401CF2
:100670002062281EA5F10105F3DC2046AFF30080BF
:100680002078000602D50220BDE8F0870120FBE7B4
:1006900010B5436913B1AFF3008001E0FFF758FED6
:1006A000012010BD127800F124010A7000224A7066
:1006B0000122EDE711684FF0FF32E9E7074B70B513
:1006C0000D467B4400F01DF80446284600F02CF847
:1006D00010B14FF0FF3070BD204670BD0318000010
:1006E00010B500F005F8001D10BD00BF2D3400004E
:1006F00000487047041D002001694A1C0261087807
:10070000704700B58FB0CDE9013100210591054951
:100710007944CDE9031011466846FFF7E5FD0FB0B7
:1007200000BD0000E5FFFFFF007B00F08000704788
:1007300000487047E41C00207546FFF7F9FFAE46FD
:1007400005006946534620F00700854618B020B5DD
:10075000FFF7ACFDBDE820404FF000064FF000076A
:100760004FF000084FF0000B21F00701AC46ACE859
:10077000C009ACE8C009ACE8C009ACE8C0098D46C6
:10078000704710B50446AFF300802046BDE8104026
:10079000FFF777BD4FF0013C50F8042B51F8043BB4
:1007A0009A4221D1A2EB0C03934313EACC1317D145
:1007B00050F8042B51F8043B9A4215D1A2EB0C03DC
:1007C000934313EACC130BD150F8042B51F8043B9C
:1007D0009A4209D1A2EB0C03934313EACC13DBD06A
:1007E0004FF00000704700BFD01A01BAB1FA81F192
:1007F00001F0180122FA01F0CB40C1F12001DBB277
:10080000C0B2C01A2CFA01F3D11A914311EAC311F4
:10081000E6D170477047000001491820ABBEFEE7E3
:10082000260002000029016802D041F0010101E028
:1008300021F00101016070472DE9F043016821F0CA
:10084000010101600021016041608160C1600161BE
:10085000212141613C493C4A3D251039904202D159
:100860008D60BDE8F083384A4FF4746618329042C8
:1008700001D18E60F5E7344A4FF47417303290425C
:1008800001D18F60EDE7304A4FF0746C48329042EE
:1008900002D1C1F808C0E4E72B4B2C4A60339842E0
:1008A00001D1CA60DDE7284C294B7834A04201D140
:1008B000CB60D6E7DFF89080264C08F190084045E1
:1008C00001D1CC60CDE7DFF880804FF03D5908F1D1
:1008D000A808404502D1C1F80C90C2E71E49DFF8D4
:1008E00078800839404501D10D60BAE71A4D1835B6
:1008F000A84201D10E60B4E7174D3035A84201D1AE
:100900000F60AEE7144D4835A84202D1C1F800C0CF
:10091000A7E7114D10496035091FA84201D10A60AF
:100920009FE70D4A7832904201D10B6099E70A4A5D
:100930009032904201D10C6093E7074AA83290426E
:100940008FD1C1F800908CE7106002403D0000207C
:10095000400F002000003D2010640240406880B23B
:1009600070470B0607D5436912B143F0800301E0DD
:1009700023F080034361802908D0002A026801F037
:100980001E0101D00A4300E08A4302607047000064
:1009900030B50368124ACC6813400A682243D1E993
:1009A00005452C432243CC6922430C6A22434C6AFE
:1009B00022438C6A22434C6B22438C6B22431A43A2
:1009C0000260426922F00703D1E90B2422431A4353
:1009D00042610A6942604A6882608968C16030BDCC
:1009E0003F801CF00AB101617047C16070474160EF
:1009F00070470021016041608160C1600161416117
:100A00008161C161016241628162C16201634163CE
:100A10008163704700F020B800F01EB800F01CB8E9
:100A200000F01AB800F018B800F016B800F014B8CA
:100A300010B50121880300F027FB40210448FFF78F
:100A40006CFDFF22BDE8104007210248FFF73BBDC7
:100A5000900E0020480000202DE9F0410C48046869
:100A60000B4E143630684FF001080440094F0BE07C
:100A7000B4FA84F0C0F11F0008FA00F557F820001E
:100A8000016888473560AC43002CF1D1BDE8F081A6
:100A9000003C0140900E00201CB501211A4800F0D6
:100AA000B7FA0121002000F0CBFA0121174800F02D
:100AB000D3FA0121164800F0E7FA684600F038F949
:100AC00001208DF8070049F6FF7000904FF6FF7483
:100AD0006946104800F0CBF869460F48009400F0D2
:100AE000C6F869460D48009400F0C1F869460C4804
:100AF00000F0BDF869460B4800F0B9F869460A48AD
:100B000000F0B5F81CBD00009F9067000FC80210F0
:100B10003179170000000240000402400008024042
:100B2000000C024000100240001C02400149086015
:100B3000704700000C3C024070B50646002529B104
:100B4000012927D0022928D04FF4407500F080F801
:100B500009281ED1124C206820F4407020602068C3
:100B600028432060206820F0F8002060206846F0CC
:100B7000020108432060206840F48030206000F0CB
:100B800067F8216821F002012160216821F0F80155
:100B9000216070BD4FF48075D8E74FF40075D5E73C
:100BA000103C02400D4909200A68D20301D50120FA
:100BB00070470A68D20601D5062070470A68D20538
:100BC00001D5022070470A6812F0E00F01D007201B
:100BD000704709688907FBD5082070470C3C024024
:100BE0000248016841F0004101607047103C02403A
:100BF00070B50D46064600F02BF8092813D10A4CB3
:100C0000206820F440702060206840F4007020606C
:100C1000206840F001002060356000F019F821687C
:100C200021F00101216070BD103C024005480068C0
:100C3000002805DA034804490C38016003490160C3
:100C400070470000103C024023016745AB89EFCD9F
:100C500008B509208DF80000FFF7A4FF8DF800000B
:100C60009DF800000128F7D09DF8000008BDF0B500
:100C70000023012403270D6804FA03F2154095426E
:100C800042D1D0F800C05E0007FA06F52CEA050C48
:100C9000C0F800C091F804C0D0F800E00CFA06FCDF
:100CA0004CEA0E0CC0F800C091F804C0BCF1010F72
:100CB00002D0BCF1020F1FD1D0F808C02CEA050CFD
:100CC000C0F808C091F805C0D0F808E00CFA06FC9E
:100CD0004CEA0E0CC0F808C0D0F804C02CEA020C94
:100CE000C0F804C0426891F806C00CFA03FC1FFA71
:100CF0008CFC42EA0C024260C268AA43C260CA7914
:100D0000C568B2402A43C2605B1C102BB3D3F0BD50
:100D10004B07DB0E9A40C90810B500EB8100016A51
:100D20000F249C40A1430162016A1143016210BD7E
:100D30004FF6FF7101600021017141718171C17134
:100D4000704700007CB50D4604001CD000F0BEF8D2
:100D50000D49085C012100F0B7F9A088009005F06A
:100D600003008DF80400C5F381008DF80500C5F37C
:100D700000108DF80600C5F341108DF80700694694
:100D80002068FFF774FF7CBD173C00087CB5164651
:100D90000D46040024D000F099F81249085C0121A6
:100DA00000F092F9204600F09DF881B232462068AA
:100DB000FFF7AEFFA088009005F003008DF8040057
:100DC000C5F381008DF80500C5F300108DF806000D
:100DD000C5F341108DF8070069462068FFF747FF0B
:100DE0007CBD0000173C00084FF0FF3101EB1011F3
:100DF00000F00F03052906DA144830F8112001200D
:100E00009840024201D100207047401E10404FF030
:100E1000553303EA5003C01A4FF0333200F0333336
:100E200002EA90001844094A00EB101000F00F305D
:100E30000C3A00EB102000EB1040515C00F03F003A
:100E40000844034901EBC000704700001E3C000845
:100E5000D00E0020F0B50C4A00200C4EDFF830C058
:100E6000012300210CEB802536F8107003FA01F401
:100E7000274202D020C222F8044B491C1029F3D388
:100E8000401C0528EDD3F0BDD00E00201E3C00080C
:100E900000000240002802D081880068816170470C
:100EA0008171C2717047002805D0828801B110217C
:100EB00000688A408261704728B18088B0FA80F06B
:100EC000C0F11F0070474FF0FF30704720B100683D
:100ED00003490844800A70474FF0FF307047000014
:100EE0000000FEBFFFF7E8BF70B5054600210846C9
:100EF00000F03EF80021012000F03AF80021022025
:100F000000F036F80021032000F032F81649287965
:100F1000164E08700024285D70B1FFF765FF611C54
:100F2000CAB246F824000121FFF7BAFF56F82400A0
:100F30000121FFF707FF02E0002046F82400641CAF
:100F4000042CE8DB0021084600F012F80021012003
:100F500000F00EF80021022000F00AF8BDE8704011
:100F60000021032000F004B84F00002050110020A1
:100F7000074B0A4601211B788140194000D001210E
:100F80000AB981F00101034A52F82000FFF78BBF34
:100F90004F0000205011002030B50F22C478017896
:100FA0000123FCB1144C246801F1E02104F4E06455
:100FB000C4F5E064C4F30724C4F10405E2404478B6
:100FC000AC408578154025432A0181F8002400783B
:100FD00000F01F018B404009800000F1E020C0F8C4
:100FE000003130BD01F01F0083404809800000F14E
:100FF000E020C0F8803130BD0CED00E0024908432C
:1010000002490860704700000000FA050CED00E09E
:10101000044A0029116801D0014300E081431160B6
:101020007047000030380240044A0029116801D09E
:10103000014300E081431160704700001038024016
:10104000044A0029116801D0014300E08143116086
:101050007047000034380240044A0029116801D06A
:10106000014300E0814311607047000040380240B6
:10107000044A0029116801D0014300E08143116056
:101080007047000020380240044A0029116801D04E
:10109000014300E081431160704700004438024082
:1010A000044A0029116801D0014300E08143116026
:1010B00070470000243802400248016841F0807106
:1010C0000160704774380240420900F01F0301209C
:1010D0009840012A05D0022A05D0032A05D1FFF73E
:1010E00097BFFFF7D1BFFFF7B7BF704770B5204A72
:1010F0001168204C11F00C0104D06610042903D0B3
:10110000082903D004601BE0066019E01849091F94
:101110000B68C3F380550B6803F03F0315B1B6FBB2
:10112000F3F301E0B4FBF3F30C680968C4F388142B
:101130006343C1F30141491C4900B3FBF1F1016074
:1011400011680F2303EA11110B4B5C5C0168E1404D
:1011500041601468072505EA94241C5D21FA04F413
:101160008460126805EA52329A5CD140C16070BD59
:10117000083802400024F40000000020420900F07A
:101180001F0301209840012A05D0022A05D0032A16
:1011900005D1FFF749BFFFF783BFFFF769BF70476E
:1011A00000210A464254491C0429FBDB4D210170F1
:1011B0004C2141704E2181704F21C17002717047E6
:1011C00030B50022084C114601EB410304EB8303C8
:1011D0009D79ED0602D51B798354521C491C0E29BA
:1011E00001DA042AF0DB30BD503B000830B540F294
:1011F0002E4101804FF4F071C180002101724FF443
:10120000FA624280521082800A4B41720A4600BF45
:1012100001EB410403EB8404A5796D0703D5851820
:1012200024792C74521C491C0E2901DA042AEFDBA4
:1012300030BD0000503B000870B504461C21FFF78C
:101240004AF96420208352200021094DA0760B46E4
:1012500005226E5C04EBC100491C8670C2700271ED
:10126000427183710329F4DB0120208070BD0000EE
:10127000323C00082DE9F04300210A4643189A72D7
:101280004254491C0A29F9DB0021DFF848C0272510
:1012900026262B2737234FF02A0936241CF9012054
:1012A000052A0FD010DC02F10102042A0CD2DFE87B
:1012B00002F00B020B058572067005E0077380F8DB
:1012C000029001E0C3734471491C0329E6DBBDE8C9
:1012D000F0830000323C00080029018802D041F070
:1012E000400101E021F04001018070471A4910B52A
:1012F000884202D10121841424E01849884202D195
:101300000121041404E0164988420AD10121C413C2
:101310002046FFF7ADFE2046BDE810400021FFF754
:10132000A7BE1049884202D1012144140AE00E49A7
:10133000884202D101210C0504E00C4988420AD1FF
:1013400001214C052046FFF7ABFE2046BDE81040CA
:101350000021FFF7A5BE10BD00300140003800405D
:10136000003C004000340140005001400054014066
:1013700030B502884C8802F441530A88CD88224354
:101380008C882C4322430C8922434C8922438C892C
:101390002243CC8922431A430280828B22F40062CA
:1013A0008283098A018230BD0CB500202749019053
:1013B00000900A6842F480320A604FF4A0430A6841
:1013C00002F400320092019A521C0192009A12B962
:1013D000019A9A42F3D10A68920334D50120009011
:1013E0001A484030026842F0805202601848026891
:1013F00042F4404202601548083002680260026808
:1014000042F400420260026842F4A0520260031FEC
:10141000104A1A600A6842F080720A600A689201F3
:10142000FCD50D4A40F205711160016821F00301FD
:101430000160016841F0020101600168C1F38101AE
:101440000229FAD10CBD00900CBD0000003802400A
:101450000070004008544007003C0240102080F318
:10146000128806484168491C4160002181604FF0A4
:10147000E020006981F31188704700002C000020F3
:1014800010B50548FFF732FE034804490068B0FB79
:10149000F1F00349086010BD800E002040420F00AB
:1014A0002C000020124800B5016841F47001016071
:1014B0001048016841F0010101600E4A0021083224
:1014C000116002680C4B1A400260031D0B4A1A603F
:1014D000026822F48022026006480C300160FFF7A7
:1014E00063FF03494FF000608039086000BD0000D1
:1014F00088ED00E000380240FFFFF6FE10300024C7
:101500000149024801F076BEC412002000000140EB
:1015100002494FF0804001F06DBE0000EC12002047
:101520000149024801F066BE141300200004004087
:101530000149024801F05EBE3C1300200008004053
:101540000029018802D041F0010101E021F00101F0
:1015500001807047002930F8441F02D041F4004157
:1015600001E0C1F30E0101807047000030B5028C2C
:1015700022F001020284028C8388048B22F0020292
:1015800024F073050C882C438D8915434A882A431F
:101590000C4DA84202D00C4DA8420DD122F00805F6
:1015A000CA8923F440732A4322F004058A882A4317
:1015B0000D8A1D434B8A2B438380048389684163D2
:1015C000028430BD0000014000040140028B22F083
:1015D00008020A430283704770B5028C22F01002A1
:1015E0000284028C8488038B0D8823F4E6464FF630
:1015F000FF7303EA052535438E8922F0200203EAB2
:10160000061616434A8803EA02123243104EB042CD
:1016100002D0104EB04215D122F08006CA8924F4BF
:10162000406403EA0212324322F040068A8803EA49
:10163000021232430E8A03EA860626434C8A03EAE4
:10164000840434438480058389688163028470BD87
:101650000000014000040140028B4FF6FF7322F4AA
:10166000006203EA012111430183704770B5028CC7
:1016700022F480720284028C8488838B0D8823F08C
:1016800073031D4322F400738E894FF6FF7202EA42
:1016900006261E434B8802EA03233343104EB04212
:1016A00002D0104EB04215D123F40066CB8924F449
:1016B000405402EA0323334323F480668B8802EA12
:1016C000032333430E8A02EA061626434C8A02EAB3
:1016D00004143443848085838968C163038470BDA6
:1016E0000000014000040140828B22F008020A43FE
:1016F0008283704770B5028C22F480520284048C7D
:101700008288838B0D8823F4E6464FF6FF7303EA45
:101710000525354324F400568C8903EA0434344308
:101720004E8803EA06362643084CA04202D0084CF5
:10173000A04205D122F480440A8A03EA821222439D
:101740008280858389680164068470BD0000014041
:1017500000040140828B4FF6FF7322F4006203EA1B
:1017600001211143818370470021018041808180E4
:1017700081608181C18101824182704730B50288D8
:10178000164B174C98420DD0A0420BD0B0F1804FB1
:1017900008D0144DA84205D0134DA84202D0134DD5
:1017A000A84203D122F070054A882A43104DA8426E
:1017B00006D0104DA84203D022F440750A892A436E
:1017C00002804A68C2620A880285984201D0A0421B
:1017D00001D1897A01860121818230BD000001405A
:1017E000000401400004004000080040000C0040DC
:1017F00000100040001400404FF0FF314160002114
:1018000001800181418081727047000002480068B8
:10181000001D01F003BE0000DC0D002002488068BE
:10182000001D01F0FBBD0000DC0D002002484069F6
:10183000001D01F0F3BD0000DC0D00200A0A0121AB
:101840009140C943018070470029818902D041F449
:10185000005101E021F4005181817047002A828A01
:1018600001D00A4300E08A438282704730B501F01C
:101870001F0201240025C1F3421304FA02F2012BD6
:101880000FD0022B0FD0838A4FEA11210088134218
:1018900004FA01F400EA040001D000B10125284651
:1018A00030BD8389F0E7038AEEE70029818A02D000
:1018B00041F0080101E021F008018182704710B574
:1018C000C1F3421301F01F040121A140012B07D0F5
:1018D000022B07D01430002A026805D00A4304E026
:1018E0000C30F8E71030F6E78A43026010BD0000C4
:1018F0007FB50446008A0D4620F44051E88808432D
:101900002082A08941F20C618843A9882A89114369
:101910006A8902431143A181A08A20F44071A889F9
:101920000843A0826846FFF7E1FB1A48844202D0D0
:101930001948844201D1039800E00298A189090462
:1019400000EBC00101EB0010296801D5490000E05F
:101950008900B0FBF1F26420B2FBF0F109010B0940
:101960006FF018056B4302EB8302A3891D044FF04F
:10197000320306D503EBC202B2FBF0F000F0070021
:1019800005E003EB0212B2FBF0F000F00F00084399
:1019900020817FBD0010014000140140C1F3080107
:1019A0008180704710B500F097FA084808494268EE
:1019B0000C4601F2851001F08DFF064A2046BDE875
:1019C000104002F5CC7100F0C1BD0000FC0D0020FC
:1019D00050150020D41300200022014403E000BF72
:1019E00010F8013B5A408142FAD810467047000077
:1019F000F0B5154A032400EB4007D679B6FBF4F3A3
:101A000004FB1365114B03EB470323F81510557ABC
:101A10002DB9032E01D20846F0BD012151720B49A8
:101A20000022303121F8102033F8125031F81060C4
:101A3000521C354421F81050032AF5DB31F910000F
:101A400090FBF4F080B2F0BD4C0E0020A41B0020EF
:101A500070B505460A4C44F620602844E060A17940
:101A600029B16069854201D9491EA17170BD00F09C
:101A70004BFF284600F03EF9E079401CE07170BD54
:101A80004C0E002000F088BFFEB5064614460D46F9
:101A90006846FFF7B1FE6D1EA8B20190304601F016
:101AA000EBFB0A490968B1FBF0F009494C43B0FB74
:101AB000F4F0401EADF800000020ADF80800ADF8CD
:101AC000020069463046FFF759FEFEBD10000020B7
:101AD00040420F00884201DA084670479042FCDD20
:101AE000104670472DE9F05F04464FF45B71FEF736
:101AF00014FD04F10805284600F060FA2946082084
:101B000000F05FFA002626730125657384F81063E0
:101B100084F89F6084F89E5084F8A0605A2084F86E
:101B2000A1004FF4C870A4F8A4004FF49670A4F874
:101B3000A600C820A4F8A8006420A4F8AA0084F88D
:101B40009C6084F8AE60302084F89D0084F8AF601B
:101B500084F8BE5004F16C00FFF78CFB04F18000A8
:101B6000FFF76AFB04F1C200FFF71AFB04F1C7009C
:101B7000FFF726FB032084F8A80184F8A95104F597
:101B8000C670FFF733FB00209FED470A04EB0011FE
:101B9000401C81ED330A0C28F8DB4FF0020984F871
:101BA0001890A676E676657684F8216084F822504F
:101BB00040F2DC50E08440F24C40208540F26C70F2
:101BC000608540F27530A086A84640F64300E08666
:101BD000002540F6CA0B4FF0190A00BF04EB450779
:101BE0003837042D01DB012000E000203870032D80
:101BF00057D0E08C5A4640F2EE21FFF76BFFA0F27F
:101C0000EE2090FBFAF06D1C7870122DE6DB84F864
:101C100023601E2084F8240084F8256084F82C902A
:101C200084F82D60132084F82E0084F82F600E2095
:101C300084F8300040F24650608604F15C0000F009
:101C40009FFE84F8BF6084F8C080052084F8C1003E
:101C500004F1100115A000F065FD04F5DA700646E8
:101C600000F008FF04F1BA0000F032FF092212A1CF
:101C700004F26130FEF778FC204601F06FFA01258E
:101C800005EB4500C0EB451004EB800074223146A3
:101C900000F5DA70FEF7E5FB6D1C032DF0DBBDE807
:101CA000F09FA08EA6E700000000000041455452BE
:101CB000313233340000000053544D44495346340C
:101CC0000000000030B504464FF47A7502E0284663
:101CD00000F004F8641EFAD230BD000030B50546AD
:101CE00000F096FB4FEA000400F092FB001BA842B4
:101CF000FAD330BD2DE9F05F04460127780300F0E8
:101D000081F890F001054FF47A70B4FBF0F63B488F
:101D100003D1817841704179017141780279914311
:101D200000D100270F21DFF8D8B081720024ABF179
:101D3000240A814652E027B13148483830F914006E
:101D400000E0002081B2D9F81C004A46838C8B4207
:101D500008D8B0F826C08C4504D306F596704BF829
:101D6000240031E05BF82410B14202D93AF8141093
:101D70002AE0E1B200EB410C1CF8288FB8F1000F0B
:101D800003D0B8F1020F07D10DE041B1012906D00F
:101D9000022904D0032904D03AF811100BE0C18ABB
:101DA00009E0194607E09CF8010000EBC00101EBD7
:101DB000001101F2EE21E0B2042805D20123834094
:101DC000907A984389F80A0015B12AF8141004E0B3
:101DD000E0B2FFF70DFE2AF81400641C00F0C0F812
:101DE000A042A8DC99F80A100F2905D05FF0000185
:101DF00089F80310BDE8F09F0121F9E74C0E00209F
:101E0000381C002003490968014201D001207047B5
:101E100000207047480E002002498A6882438A6089
:101E200070470000C413002003498968014201D0B3
:101E30000120704700207047C413002002498A68BF
:101E400002438A6070470000C413002010B50446A6
:101E500007480246436806E003EBC100491C1170C5
:101E60000188214203D111780329F5D3002010BD48
:101E700060000020024900220A70FFF7E7BF00005F
:101E8000600000200146054A002013568B4204D012
:101E9000401C0328F9DB4FF0FF307047323C00084C
:101EA00010B5084B0246002101EB410003EB800016
:101EB00090F90040944204D0491CC9B20329F3D3DD
:101EC000002010BDA012002010B50446C0B200F0E2
:101ED00089FE204610BD0000F0B51C4900201C4EB4
:101EE0000C680A274FF47A7CE37800EB8001C3EB9F
:101EF00041010122002903DDC3F16402D2B201E0F5
:101F000000DA1A46257901FB01FE05FB0EFE12FBE5
:101F100002F29EFBF2F2C5F164052A4402FB01F2D3
:101F200092FBF7F103EB830201EB42014FF47A726B
:101F300011FB02F191FBFCF101F57A7126F810100A
:101F400000F10100C0B20C28CED3F0BD040E002079
:101F50003017002001480078704700002C0E002048
:101F60000848017A59B9C169074A91F820101278D6
:101F7000091DC9B28A4201D2027200E00172007AE0
:101F8000704700004C0E0020E41B0020704700004A
:101F90000948C1688A8842800A88C280498881804D
:101FA0004169098BC1F5FA6100EE101AB8EEC00A5A
:101FB00080ED060A704700002C0E00200021016011
:101FC00070470A6802430A607047000070B5244CED
:101FD00020789D2801D023A020E060884FF45B7515
:101FE000A84206D12079BE2803D194F86A03EF28CD
:101FF00001D027A012E0092235A13848FEF718FACF
:1020000008B137A00AE029462046FFF7E5FC05465F
:10201000014640A0FEF75CF925B142A0FEF758F951
:10202000002070BD94F86B1348A004F5C674FEF749
:102030004FF9218849A0FEF74BF9618850A0FEF7BF
:1020400047F9A18857A0FEF743F9217A5EA0FEF771
:102050003FF9E18867A0FEF73BF9012070BD000061
:1020600000000808454550524F4D20636F6E666969
:102070006775726174696F6E2076657273696F6ED1
:1020800020636F6E666C696374732121210D0A00F1
:10209000454550524F4D20636F6E6669677572619A
:1020A00074696F6E2073697A652C206D616769634E
:1020B0005F626520616E64206D616769635F65665C
:1020C00020636F6E666C696374732121210D0A00B1
:1020D00053544D444953463400000000610308083E
:1020E000454550524F4D20636F6E6669677572614A
:1020F00074696F6E20626F617264206964656E74CA
:10210000696669657220636F6E666C696374730DCE
:102110000A000000636865636B73756D3A2025756E
:102120000D0A0000454550524F4D20636F6E6669A1
:102130006775726174696F6E20696E76616C69642F
:1021400020636865636B73756D0D0A0074656D704F
:102150002D3E63686B3A2025750D0A0074656D701D
:102160002D3E6D6F746F72436F6E6669672E6D6979
:102170006E7468726F74746C653A2025750D0A0070
:1021800074656D702D3E6D6F746F72436F6E66690E
:10219000672E6D61787468726F74746C653A20256F
:1021A000750D0A0074656D702D3E6D6F746F72430E
:1021B0006F6E6669672E6D696E636F6D6D616E64BB
:1021C0003A2025750D0A000074656D702D3E6D6F07
:1021D000746F72436F6E6669672E6D6F746F7250A5
:1021E000776D50726F746F636F6C3A2025750D0AAE
:1021F0000000000074656D702D3E6D6F746F72434A
:102200006F6E6669672E6D6F746F7250776D526175
:1022100074653A2025750D0A0D0A000010B50022DC
:1022200000EB82031C788C4205D19C78DB789C42C1
:1022300001D2012010BD521CD2B2142AF0D30020CA
:1022400010BD416B11B190F84C007047816A406A33
:10225000814201D1012070470020704702480349A4
:102260008068086070470000C4130020480E0020FA
:102270002DE9F84F8A468146174650211A48FEF745
:102280004CF94FF00108002426E000BF19F8045073
:102290000021284601F028F8060021D02846FEF744
:1022A000A3FD114904EB840201EB8205611CCAB253
:1022B0000C212861FEF7F4FD02212869FEF742FD9A
:1022C0004FF47A73424628463146CDF800A000F01C
:1022D00070FA01202873641CBC42D7DBBDE8F88F7C
:1022E000034902488860F9E760110020752800085A
:1022F00050000020104A800A811A904210D009DC58
:10230000B0F5801F0ED06FF4801140180CD001285A
:1023100004D10BE001290BD011290BD0FE2070470E
:10232000002070470120704702207047032070474B
:1023300004207047052070474000100000F0E6FEC2
:10234000FEF788FDFFF722FEFFF79CFB2A4800F00E
:1023500067FD00F031FC01F001FB00F08DFA274C25
:10236000254D27492078803D40F001002070287BD2
:102370000870FFF773FF05F1C200FEF7B5FDFEF729
:1023800057FB6420FFF79EFC00F0CCFF00210422E5
:1023900005F1C700FFF76CFF95F8A80105F1CC0126
:1023A00000F0BCF800F09EF8B5F89051FFF7D2FDB0
:1023B00002462946134800F0CFF8002000F00CFE3A
:1023C0002078114940F002002070A1F2013000F0A5
:1023D00087FB0E490120087000F01AF8044600211E
:1023E00000F008FC204600F0F9FE204600F0D2FE86
:1023F0001420FFF767FCEFE74414002024000020BE
:102400007C0E002050150020D5160020080E00205C
:10241000124810B40068C00502D1EFF3118010B16A
:1024200010BC00F01FB80E494FF0E02348689A69CD
:1024300000BF4C68A042F9D1096810BC01EB410310
:10244000C3EBC113C2EBC302B2FBF1F100EB4002DC
:10245000C2EBC01001EBC0007047000004ED00E0CB
:102460002C00002010B5102080F312884FF0E021DE
:1024700001238A690869C4030C4801D583608A690D
:1024800041688368002484F311880068194400EBD4
:102490004004C4EBC014C2EBC402B2FBF0F001EB89
:1024A0004102C2EBC11100EBC10010BD2C000020A5
:1024B00001484068704700002C000020064807498A
:1024C000074BB0F906200020097802E023F810201D
:1024D000401C8842FAD37047240E00202C0E0020A6
:1024E00048170020F0B40A4804210A4B01700A4A38
:1024F000002000BF02EB001603EB001496E8E0108A
:1025000084E8E010401C8842F4DBF0BC00F00EB818
:102510002C0E002078170020D03C0008024A507092
:102520009160FFF735BD00002C0E00200549064ADA
:102530000020498809B200BF22F81010401C0C2866
:10254000FADB70472C0E002060170020014B83E857
:1025500007007047380E00202DE9F74F064682B07D
:102560009346F0214048FDF7D8FF707A4FF00009FC
:1025700008B1012700E00027307ADFF8F08010B1C1
:1025800047B13B4907E03B490027C8F808104FF026
:102590000109039738490025C8F804105EE0701956
:1025A0000021047C204600F09FFE5FEA000A23D051
:1025B0002046FEF719FC2C4905EB850201EB82044D
:1025C000691CCAB20D212061FEF76AFC0221206954
:1025D000FEF7B8FBCFB1C822284929A0FDF778FE45
:1025E0002C494A4609FB01F0F188B0FBF1F083B2B7
:1025F00003980090204613E02749C8F808101C49AA
:10260000C8F8041005B0BDE8F08FD5221B4923A0FF
:10261000FDF75EFE002000904A4620464FF6FF730D
:10262000514600F0C6F8002210460F490CE000BFEA
:1026300000EB800301EB8303D4F804C05B686345BF
:1026400001D1012202E0401CA842F1DB82F001002E
:10265000207201206D1C20730C2D01DA5D459EDB7C
:10266000012088F80000CDE7B011002050000020C4
:10267000B12700086128000879270008283C0008D5
:10268000756E73796E6365642C2025732C20256428
:102690000D0A000040420F007528000873796E6330
:1026A00065642C2025732C2025640D0A0000000091
:1026B00000207047002070472DE9F84F9846DDE96B
:1026C0000AA791460E460546FFF7EAFB040020D014
:1026D0002089F0B925B1022D08D0052D19D112E0BD
:1026E0005346424649460C48009704E0534642464A
:1026F00049460A48009700F0DDFE50B10571268179
:102700006060BDE8F88F534642464946044800974A
:10271000F1E70020F5E7000000100140004800400C
:10272000001401402DE9F0410B4D88460746044650
:1027300005F108060AE00848FDF770FE28B1B0422E
:1027400003D2E11B421B08F80210641C2178002907
:10275000F1D1BDE8F0810000173D0008FFF778B91E
:102760000148007870470000500000200149496886
:1027700008470000500000202DE9F04100240746E2
:102780000A4DA0460EE000BF04EB840605EB860070
:10279000017A11B1406800F08DFD55F82610C1F89E
:1027A0000080641CBC42EFDBBDE8F081B01100206A
:1027B00070472DE9F04F85B006460C4608689946EB
:1027C0000E9F1946FFF760F994F805A0E579684671
:1027D000D4F800B0FEF7C8FF6020ADF8000068072D
:1027E0004FF000080BD50420ADF804006FEA8570A7
:1027F000C00FC000ADF81280ADF80E0009E0012056
:10280000ADF802000002ADF8100005F00200ADF8CE
:102810000C006A4651465846029700F0C5FD082252
:102820005146584600F0D4FD01212068FEF792FE83
:1028300001212068FEF784FE204600F018FD30607C
:10284000A6F80A9021687160C0F8008005B0BDE864
:10285000F08F0000014A92681047000050000020ED
:10286000034A00EB800052F820000160704700002E
:10287000B01100207047000010B5FFF7A7FBA0B112
:102880000BA000BFFDF724FD4FF45B720F49104809
:10289000FDF7E7FD0F4890F8100300F083FB01F00F
:1028A00027F8BDE81040FFF77DB80BA0EAE700006D
:1028B000464C41534820454550524F4D206C6F6F58
:1028C0006B7320676F6F640D0A000000000008083A
:1028D00038180020C4130020464C41534820454579
:1028E00050524F4D20636F6E7461696E7320696E34
:1028F00076616C696420696E666F726D6174696F70
:102900006E21210D0A0000002DE9F843FFF728FB96
:1029100006460024184F40F2EE2540F6CA0826E08D
:10292000E1B2F869082900D2415C14484268904736
:10293000042C17DAF96901EB8401C96C90B14FF4EA
:10294000FA6200920A0C89B24FF47A7300F05CFAD2
:10295000A84201DB404503DAA84202DA284600E03B
:10296000404680B205490C3121F81400641CB44281
:10297000D6DBBDE8F88300004C0E0020E41B0020ED
:1029800000214FF47A735A0020F8023B491C20F8CA
:10299000022B0429F8DB704710B50448FFF7A2F8B2
:1029A000BDE81040002000F0FDBA0000C413002074
:1029B00030B52C210170282383721E2101753A2124
:1029C00041703222C27223214175462181702D212E
:1029D000017314218175C27000214173C1750F24E8
:1029E000047181730176222444710E24C47335244A
:1029F0004476192484712124047453248476C2718A
:102A000042746424C476037237234372C3744B2523
:102A10004577B6EE000A80ED0B0A80ED0C0A418482
:102A200080F828200122827704844FF482758584FF
:102A3000A025C58480F8351080F8362080F837301E
:102A400080F8383080F840403C2180F84110B2EEE8
:102A5000040A80ED110A9FED060A4FF4AF7180ED74
:102A6000120A4187B0EE080A80ED0F0A30BD00005F
:102A7000000000002DE9F0470446FFF799FF00230E
:102A8000642518464FF0320C4FF00A0840F2726984
:102A90005FF0460603EB430104EB8101002201F8DD
:102AA0004E5F4D70887081F803C0087181F808800E
:102AB0004872A1F80A908F18521CD2B27E71032A74
:102AC000F9D35B1C032BE5DB84F84C00BDE8F087F1
:102AD000002101704170282181700121C17070476F
:102AE0002DE9F05F0446DFF8B4802A48DFF8B0A093
:102AF000DFF8A490C4610F46C8E9019A0021C171B2
:102B00002849002508F1540B08F130068161E08A5C
:102B100026F81500FFF7CCFC00F596704BF8250061
:102B20006D1C122DF3DBA08CF080002007EB8001E0
:102B30000A78AAB98A78CB789A4211D232B102EBDC
:102B4000C20303EB021202F26B3205E003EBC30295
:102B500002EB031202F29D32497806EB41010A8131
:102B6000401C1428E2DB0820FFF74CF900280FD0A6
:102B70000A49204600F06EF9002809D191220A493D
:102B80000AA0FDF7A5FB0820FFF746F9C8E9019A5E
:102B9000BDE8F09F4C0E0020B5260008E41B002085
:102BA000B1260008A0860100103D000825732C20E6
:102BB00025640D0A000000001CB58020FFF75AF9BB
:102BC00000280CD000220321CDE9001290F9020068
:102BD0004FF4E1338021FFF76FFD014908601CBD10
:102BE0005C00002001460248006800F0D7B90000F0
:102BF0005C00002070B5124C05460020617821B1C0
:102C000021698D4201D36070A07020700D488068EA
:102C10008047C1070BD001212170C0F34000207113
:102C200080F001006070A0692844206104E02078F1
:102C300010B9E068854201D3012070BD002070BD4D
:102C40004C0E0020E41B002070B50446FFF7E0FBAB
:102C50000F4940F6AC554A68831A0022AB4201DDA9
:102C60004A700DE04B785BB1192B08D2094B4878BC
:102C70001C54401CC0B24870192805D20A7070BD9F
:102C80000F2CFCD14860F1E70120087070BD0000F6
:102C90006C0E0020801C0020334810B501780029FC
:102CA00054D000210170314840F2147330F8011FF4
:102CB000C1F30A022D491C310A60B0F80120C2F3A9
:102CC000CA024A60D0F80120C2F38A328A60828840
:102CD000C2F34A02CA60B0F80520C2F30A120A61C0
:102CE000D0F80520C2F3CA324A610289C2F38A02CF
:102CF0008A61B0F809205209CA61B0F80B20C2F30A
:102D00000A020A628289C2F3CA024A62C268C2F334
:102D10008A328A62B0F80F20C2F34A02CA62028A7B
:102D2000C2F30A120A630269C2F3CA324A63B0F8F4
:102D30001320C2F38A028A63828A5209CA63807DA1
:102D40004FF0AD02C40703D00B6402E0002010BDB9
:102D50000A64840701D54B6400E04A64000701D58A
:102D6000032010BD012010BD6C0E0020801C00202F
:102D70007CB504460022184B0A20E58A2D01B5FBDC
:102D8000F0F5A5F5B06543F82250521C122AF4DB89
:102D90001220087042F6F820488010484860104819
:102DA00088604020FFF766F8002814D0617A01B1EE
:102DB0000121A27A891D02B1082211430122CDE925
:102DC000002190F90200074B074A4021FFF774FCED
:102DD000002800D001207CBD9C1C0020ED2D0008A7
:102DE000992C0008A0860100492C0008054850F8DD
:102DF00021004FF45C7100EB800001EBD00080B249
:102E0000704700009C1C002030B5401A039CE51A56
:102E100005FB00F3501A93FBF0F0401B204430BD3B
:102E2000094910B5486024210848FDF776FB074A98
:102E30000749002000EB40040B5C401C02F82430E2
:102E40000328F7DB10BD000060000020A012002066
:102E5000323C000802460020137A022B02D11046B1
:102E6000FFF786BF704700002DE9F84F064640483F
:102E70001F46904650F82640F4B33E48606004F187
:102E80006E00A06104F26E20251DE0614FF4007019
:102E9000C5E9021060612068E065A06E18B1206E7F
:102EA000A863A06E2863606E18B1206EE863606E40
:102EB0006863A86D001D2865A86D001D686594F8FD
:102EC0006D00FDF791FF824694F86C00FDF78CFFD2
:102ED000814694F86E0410B10121FEF7F5F8380729
:102EE00006F1010612D5F2B205215046FDF7D8FFD2
:102EF000F80694F86F2400E002E004D5022103E014
:102F00000020BDE8F88F1221504619E05FEA887072
:102F10000AD5F2B205215046FDF7C2FF94F86F249E
:102F200022215046FDF732FF5FEAC8700AD0F2B2A4
:102F300006214846FDF7B4FF94F86F242221484645
:102F4000FDF724FFA86B88B994F870048DF8000091
:102F5000B4F8780480098DF8010000208DF8020093
:102F600001208DF803006846FEF716F82846C8E7EA
:102F7000DC0D0020383C000813460A4601460020BC
:102F8000FFF772BF13460A4601460220FFF76CBFE7
:102F900013460A4601460520FFF766BF026812681D
:102FA0001047000000EB4001C1EB4010084901EB65
:102FB0008000084900F5DA70486090F84C200A70EB
:102FC00002EB420200EB82004E3088607047000046
:102FD000C4130020FC0D002010B5411C022906D2AC
:102FE000DFE801F0050100F005F8012010BD002028
:102FF00010BD000030B505463F4885B000EB051414
:103000000121207AFEF760F8207A0121FEF7B6F858
:103010006079FDF7E9FE6D1CEAB20821FDF740FF7B
:10302000E079FDF7E1FEEAB20921FDF739FFA07969
:10303000FDF7DAFEEAB20A21FDF732FF6079FDF70B
:10304000D3FE627A0A21FDF7A1FEE079FDF7CCFEFE
:10305000627A2A21FDF79AFEA079FDF7C5FE627A11
:103060002A21FDF793FE207988B1FDF7BDFEEAB273
:103070000721FDF715FF2079FDF7B6FE627A0921D9
:10308000FDF784FE62221D491DA0FDF721F920688D
:10309000FEF72CF94FF48270ADF8020000204FF4D7
:1030A0000071ADF80A100721ADF81010ADF80E0050
:1030B0001021ADF80000ADF80400ADF80C10217B34
:1030C00011B1ADF8060003E00220ADF806000120C2
:1030D000ADF8080069462068FEF74AF9012120682A
:1030E000FEF7FAF82079002803D0FDF77DFEFDF702
:1030F000D1FE05B030BD000038000020F83B0008CC
:1031000025732C2025640D0A0000000010B5FEF781
:103110004BF94FF4A060FDF771FFFDF7CDFFFDF710
:10312000BBFCFEF7ADF90B484FF47A710068B0FBB9
:10313000F1F0401EB0F1807F0AD24FF0E0214861EB
:10314000054AF02082F8140D0020886107200861EC
:1031500010BD0000100000200FE000E010B5044694
:103160000020FEF78FFE04EBC0004021A0F8801085
:103170000220FEF787FE04EBC0008021A0F880103B
:103180000520FEF77FFE04EBC0000421A0F88010AC
:1031900010BD00000E4810B500780E4C012802D07A
:1031A000072808D009E0FFF733F9A1880A4A411A35
:1031B0009180606001E0FFF72BF9FFF77FF920783D
:1031C000002803D0BDE8104000F026BC10BD000070
:1031D0007C0E0020080E0020740E002010B5FFF7B2
:1031E000BDFA034901200870BDE8104000F0DABACA
:1031F000100E00202DE9F041078A0E460446808912
:1032000007402AE0B7FA87F04FF00041C140C943B8
:1032100021820F401B3805281FD2DFE800F025224D
:103220001A170300706A28B1401E1FFA80F80020A8
:10323000706202E0E06A1FFA80F8356A04E02A68EA
:103240004146284690476D683DB1F8E7616B3068AC
:1032500001E0A16B706802689047002FD2D1BDE8F1
:10326000F081E16BB068F6E7216CF068F3E7016884
:103270004079084434307047094988420BD00949E5
:10328000884208D00849884205D00849884202D0BF
:103290000749884201D10120704702207047000091
:1032A0000004014000000140004001400044014092
:1032B0000048014010B50446FFF71CF8502181F387
:1032C0001288616A074A00EB800002EBC000491CCB
:1032D0004162A08A40F00100A082002080F31188A2
:1032E00010BD0000C412002030B5002811D00C4CD5
:1032F000002200BF02EB420304EB83031D798542E9
:1033000003D19B790B4205D121B1521C0E2AF1DB6E
:10331000002030BD02EB420004EB800030BD000015
:10332000503B000870B5F0211C48FDF7F6F81C4E24
:10333000002400BF04EB440056F8200000F05CF8C5
:103340000121FDF7C1FE641C0E2CF3DB5FF00005CC
:1033500005EB450006EB8004A0790228207918D0FF
:10336000FDF742FD227A0221FDF710FD6D1C0E2DA6
:10337000EEDB0020094A0146F0321154401C0E28B1
:10338000FBDB0020074AFF211154401C0628FBDB11
:1033900070BDFDF729FD227A4221E5E7C412002025
:1033A000503B0008F40D002041B1042909D0082940
:1033B0000AD00C290BD11146FEF79CB91146FEF735
:1033C000D5B81146FEF708B91146FEF74FB9704758
:1033D00041B1042909D008290AD00C290BD1114682
:1033E000FEF7B8B91146FEF7F1B81146FEF734B949
:1033F0001146FEF779B97047074A002152F831307B
:10340000834203D102EBC10000797047491C0E29A9
:10341000F4DB002070470000603C000870B50446F3
:10342000006BB8B940F22551A06DFEF71FFA0128D4
:1034300010D1A06DE16A808809B188470AE0E2698D
:1034400061698854E069E168401CB0FBF1F201FB5E
:103450001200E061606BF0B940F227752946A06D5B
:10346000FEF704FA012816D1D4E9091088420DD0DC
:10347000A169095CA06DFEF791FAA06A2169401C60
:10348000B0FBF1F201FB1200A06204E00022294629
:10349000A06DFEF714FA0821A06DFEF7E7F90128E8
:1034A00006D1A06DBDE870404FF45871FEF7C6B963
:1034B00070BD00002DE9F0438FB017468846574A8B
:1034C0000021DDF858901E46904205D14A46194623
:1034D0003846FFF751FD10E0514A904205D14A4667
:1034E00019463846FFF74EFD07E04E4A90424AD152
:1034F0004A4619463846FFF74BFD0446012084F83A
:103500004C0000252562E561A562C4F82C80656247
:103510006671A76084F80690204600F09BF8F007DB
:103520004FF480374FF480683DD0206B78B3684605
:10353000FDF75FFA606D0190CDE906850595CDE94F
:103540000A7508950C950D950E95E0680490A06B92
:10355000009038120395099060690290206BFDF786
:103560006BF96946206BFDF713FA0121206BFDF71B
:1035700059F901224021A06DFEF770F9206BFDF78B
:10358000EDF9A0640FE008460FB0BDE8F083FFE757
:1035900040F225594946A06DFEF750F901224946EF
:1035A000A06DFEF78CF9B00732D5606B50B368465A
:1035B000FDF71FFA206D0190CDE906850595CDE94F
:1035C0000A7508950C950D950E9520690490E06B91
:1035D0000090402009950390606BFDF72DF9694636
:1035E000606BFDF7D5F901229621606BFDF7B9F903
:1035F0000021606BFDF7FBF901228021A06DFEF731
:103600002DF905E0012240F22771A06DFEF757F970
:103610000121A06DFEF718F92046B5E70010014022
:1036200000480040001401400146C368026B406935
:1036300042B18A6C9B1AC05C521E8A6401D1CA686E
:103640008A6470470A6A805C521C9A4200D3002246
:103650000A6270471FB50446806D0021FEF7F4F83A
:10366000A0680090A07941074FF0000004D54FF406
:103670008051ADF8041001E0ADF80400A1794FF4D9
:10368000005202EA0131ADF80610A179D21002EA27
:103690000121ADF80810ADF80C00ADF80A00607912
:1036A000C00702D00420ADF80A006079800705D574
:1036B000BDF80A0040F00800ADF80A006946A06DA8
:1036C000FEF716F9A0790007A06D01D5012100E0F1
:1036D0000021FEF7EAF80121A06DFEF7B5F81FBD45
:1036E0008160FFF7B7BF4171FFF7B4BF10B5044663
:1036F000406B0021FDF796F8A16AA0690022014401
:10370000606BFDF76FF9D4E909200021824205D9E9
:10371000101A626B5060606AA06204E02269101A9D
:10372000626B5060A16284F84C10606BBDE8104081
:103730000121FDF777B8026B02B15168826C8A42B1
:1037400001D8881A7047C0680844801A7047D0E9C9
:10375000093102698B4200D21344406B591A30B1CF
:1037600040680144501E884201D800207047501A1A
:10377000401E7047436A8269D154416A0269491CFC
:10378000914200D300214162416B21B10968C90710
:1037900007D1FFF7ABBF806D012240F22771FEF722
:1037A0008EB870472DE9F04F4449434C444B0A68AA
:1037B000B4F906004FF4FA6B5189884204DAB7EE87
:1037C000000A83ED000A16E0584507DA451A127A16
:1037D000C1F5FA61554395FBF1F100E0117ADFED97
:1037E000390AC1F1640100EE101AB8EEC00A80EE89
:1037F000201A83ED001A344BA146344C93F8BA706A
:1038000093F8BBA0DD8C002140F2E63839F9116055
:10381000721B02F2F31CC44503D8002A03DCAA1B66
:1038200001E04FF4FA7231B1012904D0924518DA5F
:10383000A2EB0A0216E0974201DAD21B00E0002256
:1038400024F81120AE4203DA92B2524224F8112039
:10385000491C0329DADB198D5A46884209DA0846E1
:103860000AE00022944693F9BE20524202FB0CF279
:10387000E6E7904200DD5846401A4FF47A72504312
:10388000C1F5FA61B0FBF1F0642290FBF2F1104B4C
:103890006FF0180603EB410533F91130B5F902500A
:1038A0007143ED1A00EB8100454395FBF2F018449B
:1038B000E080BDE8F08F0000141C0020040E002002
:1038C000140E00200000C842C4130020240E002063
:1038D0003017002010B5054CC4E901120021FEF795
:1038E0009DFC80F00100207010BD0000180E00202B
:1038F00010B54FF400542046FEF796FA30B9082070
:10390000FEF792FA10B90820FEF798FA0820FEF7A1
:103910008BFA10B12046FEF77FFA2046FEF784FAB4
:1039200010B10820FEF778FABDE81040AFF3008030
:1039300009480021B0F8A620B0F8A4309A4201D37B
:10394000A0F8A410B0F8AA20B0F8A8309A4201D389
:10395000A0F8A81070470000C41300202DE9F0471C
:10396000234F9D204FF45B7438707C80BE203871EB
:10397000EF2087F86A0300250326214687F86B535A
:103980003846FEF729F887F86B03FDF74FF9DFF8A3
:103990006480A14614E0F320FDF7C8F80024E0039A
:1039A00006D140200221FDF7C7F80546092807D1B6
:1039B000395904EB0800FDF71BF90546092807D023
:1039C000761E76B2E7D2FDF70BF9092D09D104E096
:1039D000241D4C45E3D3FDF703F9FEF7F7FA002861
:1039E00003D105A0FCF774FCFEE7BDE8F0870000FA
:1039F000C4130020000008084641494C5552455F59
:103A0000464C4153485F57524954455F4641494CE3
:103A100045440D0A0000000070B5FEF7A1FE1B4EE4
:103A200000282DD030780024002829DD184D00BF53
:103A3000B5F9001017A00FE0002CF9D0012C04D02C
:103A4000022C06D0032C12D109E0B5F9021019A0FE
:103A500002E0B5F904101FA0FCF73AFC07E0B5F945
:103A6000061024A0FCF734FC2AA0FCF731FC35F842
:103A70001410E0B2FEF7EEFE3078641C8442DBDB0B
:103A80003078BDE87040FEF771BE00002C0E0020BB
:103A9000481700206D6F746F7220312050574D20F1
:103AA000636F6E74726F6C2076616C75653A202559
:103AB000750D0A006D6F746F7220322050574D20C3
:103AC000636F6E74726F6C2076616C75653A202539
:103AD000750D0A006D6F746F7220332050574D20A2
:103AE000636F6E74726F6C2076616C75653A202519
:103AF000750D0A006D6F746F7220342050574D2081
:103B0000636F6E74726F6C2076616C75653A2025F8
:103B1000750D0A000D0A000010B500290AD00878BA
:103B2000002807D005487844FCF734FE002801D06F
:103B3000002010BD0248784410BD0000260200009D
:103B40001E0200004FF04070E1EE100A70470000C6
:103B5000000800404C001001020000000008004076
:103B60004D04100102000000000800404E08100142
:103B700002000000000800404F0C1001020000008D
:103B8000000000401104040101000000000000409A
:103B9000120804010100000000000040130C0401A1
:103BA0000100000000040040210C0200020000009F
:103BB00000000140180004010100000000000000A6
:103BC00000000000000000000000000000000000F5
:103BD00000000000000000000000000000000000E5
:103BE00000000000000000000000000000000000D5
:103BF0000000000000000000737069496E697444A1
:103C00006576696365007370695472616E73666589
:103C10007200001020304060616263646500FFFF45
:103C2000FFFFFFFFFFFFFFFF6D6F746F72496E694B
:103C300074000002050000007537000837370008DF
:103C40004F37000829360008E136000843220008F3
:103C5000E73600080000000000000000000000003F
:103C600000000140201B000000000040401C00003C
:103C700000040040411D000000080040421E0000FA
:103C8000000C0040433200000010004044000000DF
:103C9000001400404500000000040140212E0000F7
:103CA000004001403018000000440140311900007C
:103CB00000480140321A000000180040462B000066
:103CC000001C0040472C000000200040482D000050
:103CD0000000803F000080BF0000803F000080BFE8
:103CE0000000803F000080BF000080BF0000803FD8
:103CF0000000803F0000803F0000803F0000803FC8
:103D00000000803F0000803F000080BF000080BFB7
:103D10007278496E697400414552543132333435FA
:103D20003637386162636465666768005C3E000828
:103D300000000020800E0000C4010008E03E0008E2
:103D4000800E0020C81400002002000810010000AE
:103D500043000000F8FFFFFF00404040404040406B
:103D6000404041414141414040404040404040404E
:103D700040404040404040404005020202020202F2
:103D80000202020202020202022020202020202041
:103D90002020200202020202020290909090909055
:103DA0001010101010101010101010101010101013
:103DB0001010101002020202020288888888888887
:103DC0000808080808080808080808080808080873
:103DD000080808080202020240000000000000007B
:103DE00000000000000000000000000000000000D3
:103DF00000000000000000000000000000000000C3
:103E000000000000000000000000000000000000B2
:103E100000000000000000000000000000000000A2
:103E20000000000000000000000000000000000092
:103E30000000000000000000000000000000000082
:103E40000000000000000000000000000000000072
:103E5000000000000000000000000000412D0102F1
:103E60000304041506070809847A030A7914011467
:103E70001430014006271517162C051A1030015E64
:103E8000820803FF272601FF01FF01FF41342407B9
:103E9000255A5004111248025F40820803FF2B2A62
:103EA00001FF01FF01FF4134520727324042602BDE
:103EB00014010B015C820A03FF373601FF01FF0189
:103EC000FF413425084732403260226842204BE4EB
:103ED0000408418B60090C011C0237010A2D0139CD
:040000050800018965
:00000001FF
